{
  "contractName": "MonPokemon",
  "abi": [
    {
      "inputs": [],
      "stateMutability": "nonpayable",
      "type": "constructor"
    },
    {
      "anonymous": false,
      "inputs": [
        {
          "indexed": false,
          "internalType": "uint256",
          "name": "id",
          "type": "uint256"
        },
        {
          "indexed": false,
          "internalType": "uint256",
          "name": "prix",
          "type": "uint256"
        },
        {
          "indexed": false,
          "internalType": "uint256",
          "name": "date",
          "type": "uint256"
        }
      ],
      "name": "MiseEnVente",
      "type": "event"
    },
    {
      "anonymous": false,
      "inputs": [
        {
          "indexed": false,
          "internalType": "uint256",
          "name": "id",
          "type": "uint256"
        },
        {
          "indexed": false,
          "internalType": "address",
          "name": "ancienProprio",
          "type": "address"
        },
        {
          "indexed": false,
          "internalType": "address",
          "name": "nouveauProprio",
          "type": "address"
        }
      ],
      "name": "Vente",
      "type": "event"
    },
    {
      "inputs": [
        {
          "internalType": "uint256",
          "name": "",
          "type": "uint256"
        }
      ],
      "name": "pokemons",
      "outputs": [
        {
          "internalType": "uint256",
          "name": "id",
          "type": "uint256"
        },
        {
          "internalType": "address payable",
          "name": "proprietaire",
          "type": "address"
        },
        {
          "internalType": "string",
          "name": "image",
          "type": "string"
        },
        {
          "internalType": "string",
          "name": "nom",
          "type": "string"
        },
        {
          "internalType": "uint256",
          "name": "xp",
          "type": "uint256"
        },
        {
          "internalType": "uint256",
          "name": "prix",
          "type": "uint256"
        },
        {
          "internalType": "enum MonPokemon.EtatPokemon",
          "name": "etat",
          "type": "uint8"
        }
      ],
      "stateMutability": "view",
      "type": "function"
    },
    {
      "inputs": [
        {
          "internalType": "address",
          "name": "_agent",
          "type": "address"
        }
      ],
      "name": "ajouterAgentAgree",
      "outputs": [],
      "stateMutability": "nonpayable",
      "type": "function"
    },
    {
      "inputs": [
        {
          "internalType": "address",
          "name": "_agent",
          "type": "address"
        }
      ],
      "name": "retirerAgentAgree",
      "outputs": [],
      "stateMutability": "nonpayable",
      "type": "function"
    },
    {
      "inputs": [
        {
          "internalType": "uint256",
          "name": "_id",
          "type": "uint256"
        }
      ],
      "name": "acheterPokemon",
      "outputs": [],
      "stateMutability": "payable",
      "type": "function"
    },
    {
      "inputs": [
        {
          "internalType": "address payable",
          "name": "_proprietaire",
          "type": "address"
        },
        {
          "internalType": "uint256",
          "name": "_id",
          "type": "uint256"
        },
        {
          "internalType": "string",
          "name": "_image",
          "type": "string"
        },
        {
          "internalType": "string",
          "name": "_nom",
          "type": "string"
        },
        {
          "internalType": "uint256",
          "name": "_xp",
          "type": "uint256"
        }
      ],
      "name": "ajouterPokemon",
      "outputs": [],
      "stateMutability": "nonpayable",
      "type": "function"
    },
    {
      "inputs": [
        {
          "internalType": "uint256",
          "name": "_id",
          "type": "uint256"
        }
      ],
      "name": "declarerPokemon",
      "outputs": [],
      "stateMutability": "nonpayable",
      "type": "function"
    },
    {
      "inputs": [
        {
          "internalType": "uint256",
          "name": "_id",
          "type": "uint256"
        },
        {
          "internalType": "uint256",
          "name": "_prix",
          "type": "uint256"
        }
      ],
      "name": "mettrePokemonEnVente",
      "outputs": [],
      "stateMutability": "nonpayable",
      "type": "function"
    },
    {
      "inputs": [
        {
          "internalType": "uint256",
          "name": "_id",
          "type": "uint256"
        }
      ],
      "name": "pokemonEstEnVente",
      "outputs": [
        {
          "internalType": "bool",
          "name": "",
          "type": "bool"
        }
      ],
      "stateMutability": "view",
      "type": "function"
    },
    {
      "inputs": [
        {
          "internalType": "uint256",
          "name": "_index",
          "type": "uint256"
        }
      ],
      "name": "pokemonIndex",
      "outputs": [
        {
          "components": [
            {
              "internalType": "uint256",
              "name": "id",
              "type": "uint256"
            },
            {
              "internalType": "address payable",
              "name": "proprietaire",
              "type": "address"
            },
            {
              "internalType": "string",
              "name": "image",
              "type": "string"
            },
            {
              "internalType": "string",
              "name": "nom",
              "type": "string"
            },
            {
              "internalType": "uint256",
              "name": "xp",
              "type": "uint256"
            },
            {
              "internalType": "uint256",
              "name": "prix",
              "type": "uint256"
            },
            {
              "internalType": "enum MonPokemon.EtatPokemon",
              "name": "etat",
              "type": "uint8"
            }
          ],
          "internalType": "struct MonPokemon.Pokemon",
          "name": "",
          "type": "tuple"
        }
      ],
      "stateMutability": "view",
      "type": "function"
    },
    {
      "inputs": [],
      "name": "totalPokemons",
      "outputs": [
        {
          "internalType": "uint256",
          "name": "",
          "type": "uint256"
        }
      ],
      "stateMutability": "view",
      "type": "function"
    }
  ],
  "bytecode": "0x608060405234801561001057600080fd5b506001600560003373ffffffffffffffffffffffffffffffffffffffff1673ffffffffffffffffffffffffffffffffffffffff16815260200190815260200160002060006101000a81548160ff0219169083151502179055506123ce806100786000396000f3fe6080604052600436106100ae576000357c010000000000000000000000000000000000000000000000000000000090048063774d3dc911610076578063774d3dc91461019457806385831079146101bd578063a7c6729914610200578063baf91d981461023d578063c391171e14610259576100ae565b8063149ece7c146100b3578063218d300e146100dc57806331ae5abf146101055780635346b04f1461012e5780635bba907f14610157575b600080fd5b3480156100bf57600080fd5b506100da60048036038101906100d59190611782565b610284565b005b3480156100e857600080fd5b5061010360048036038101906100fe919061185b565b61036b565b005b34801561011157600080fd5b5061012c60048036038101906101279190611782565b6104c8565b005b34801561013a57600080fd5b50610155600480360381019061015091906117ab565b61061f565b005b34801561016357600080fd5b5061017e6004803603810190610179919061185b565b610b5b565b60405161018b91906120de565b60405180910390f35b3480156101a057600080fd5b506101bb60048036038101906101b69190611884565b610dca565b005b3480156101c957600080fd5b506101e460048036038101906101df919061185b565b610f45565b6040516101f79796959493929190612152565b60405180910390f35b34801561020c57600080fd5b506102276004803603810190610222919061185b565b6110e4565b6040516102349190611ee3565b60405180910390f35b6102576004803603810190610252919061185b565b611129565b005b34801561026557600080fd5b5061026e6114b4565b60405161027b9190612100565b60405180910390f35b600560003373ffffffffffffffffffffffffffffffffffffffff1673ffffffffffffffffffffffffffffffffffffffff16815260200190815260200160002060009054906101000a900460ff16610310576040517f08c379a000000000000000000000000000000000000000000000000000000000815260040161030790611f9e565b60405180910390fd5b6000600560008373ffffffffffffffffffffffffffffffffffffffff1673ffffffffffffffffffffffffffffffffffffffff16815260200190815260200160002060006101000a81548160ff02191690831515021790555050565b803373ffffffffffffffffffffffffffffffffffffffff166001600083815260200190815260200160002060010160009054906101000a900473ffffffffffffffffffffffffffffffffffffffff1673ffffffffffffffffffffffffffffffffffffffff1614610410576040517f08c379a00000000000000000000000000000000000000000000000000000000081526004016104079061207e565b60405180910390fd5b6001600281111561041d57fe5b6001600084815260200190815260200160002060060160009054906101000a900460ff16600281111561044c57fe5b1461048c576040517f08c379a000000000000000000000000000000000000000000000000000000000815260040161048390611fbe565b60405180910390fd5b60026001600084815260200190815260200160002060060160006101000a81548160ff021916908360028111156104bf57fe5b02179055505050565b600560003373ffffffffffffffffffffffffffffffffffffffff1673ffffffffffffffffffffffffffffffffffffffff16815260200190815260200160002060009054906101000a900460ff16610554576040517f08c379a000000000000000000000000000000000000000000000000000000000815260040161054b90611f9e565b60405180910390fd5b600073ffffffffffffffffffffffffffffffffffffffff168173ffffffffffffffffffffffffffffffffffffffff1614156105c4576040517f08c379a00000000000000000000000000000000000000000000000000000000081526004016105bb90611efe565b60405180910390fd5b6001600560008373ffffffffffffffffffffffffffffffffffffffff1673ffffffffffffffffffffffffffffffffffffffff16815260200190815260200160002060006101000a81548160ff02191690831515021790555050565b600560003373ffffffffffffffffffffffffffffffffffffffff1673ffffffffffffffffffffffffffffffffffffffff16815260200190815260200160002060009054906101000a900460ff166106ab576040517f08c379a00000000000000000000000000000000000000000000000000000000081526004016106a290611f9e565b60405180910390fd5b600086116106ee576040517f08c379a00000000000000000000000000000000000000000000000000000000081526004016106e5906120be565b60405180910390fd5b600073ffffffffffffffffffffffffffffffffffffffff166001600088815260200190815260200160002060010160009054906101000a900473ffffffffffffffffffffffffffffffffffffffff1673ffffffffffffffffffffffffffffffffffffffff1614610793576040517f08c379a000000000000000000000000000000000000000000000000000000000815260040161078a90611f1e565b60405180910390fd5b6002600087815260200190815260200160002060009054906101000a900460ff16156107f4576040517f08c379a00000000000000000000000000000000000000000000000000000000081526004016107eb9061205e565b60405180910390fd5b60038383604051610806929190611eca565b908152602001604051809103902060009054906101000a900460ff1615610862576040517f08c379a000000000000000000000000000000000000000000000000000000000815260040161085990611f3e565b60405180910390fd5b60048585604051610874929190611eca565b908152602001604051809103902060009054906101000a900460ff16156108d0576040517f08c379a00000000000000000000000000000000000000000000000000000000081526004016108c79061201e565b60405180910390fd5b6040518060e001604052808781526020018873ffffffffffffffffffffffffffffffffffffffff16815260200186868080601f016020809104026020016040519081016040528093929190818152602001838380828437600081840152601f19601f82011690508083019250505050505050815260200184848080601f016020809104026020016040519081016040528093929190818152602001838380828437600081840152601f19601f820116905080830192505050505050508152602001828152602001600081526020016002808111156109aa57fe5b815250600160008881526020019081526020016000206000820151816000015560208201518160010160006101000a81548173ffffffffffffffffffffffffffffffffffffffff021916908373ffffffffffffffffffffffffffffffffffffffff1602179055506040820151816002019080519060200190610a2d9291906115f6565b506060820151816003019080519060200190610a4a9291906115f6565b506080820151816004015560a0820151816005015560c08201518160060160006101000a81548160ff02191690836002811115610a8357fe5b0217905550905050600086908060018154018082558091505060019003906000526020600020016000909190919091505560016002600088815260200190815260200160002060006101000a81548160ff021916908315150217905550600160038484604051610af4929190611eca565b908152602001604051809103902060006101000a81548160ff021916908315150217905550600160048686604051610b2d929190611eca565b908152602001604051809103902060006101000a81548160ff02191690831515021790555050505050505050565b610b63611676565b6000805490508210610baa576040517f08c379a0000000000000000000000000000000000000000000000000000000008152600401610ba19061209e565b60405180910390fd5b60016000808481548110610bba57fe5b906000526020600020015481526020019081526020016000206040518060e0016040529081600082015481526020016001820160009054906101000a900473ffffffffffffffffffffffffffffffffffffffff1673ffffffffffffffffffffffffffffffffffffffff1673ffffffffffffffffffffffffffffffffffffffff168152602001600282018054600181600116156101000203166002900480601f016020809104026020016040519081016040528092919081815260200182805460018160011615610100020316600290048015610cd75780601f10610cac57610100808354040283529160200191610cd7565b820191906000526020600020905b815481529060010190602001808311610cba57829003601f168201915b50505050508152602001600382018054600181600116156101000203166002900480601f016020809104026020016040519081016040528092919081815260200182805460018160011615610100020316600290048015610d795780601f10610d4e57610100808354040283529160200191610d79565b820191906000526020600020905b815481529060010190602001808311610d5c57829003601f168201915b5050505050815260200160048201548152602001600582015481526020016006820160009054906101000a900460ff166002811115610db457fe5b6002811115610dbf57fe5b815250509050919050565b813373ffffffffffffffffffffffffffffffffffffffff166001600083815260200190815260200160002060010160009054906101000a900473ffffffffffffffffffffffffffffffffffffffff1673ffffffffffffffffffffffffffffffffffffffff1614610e6f576040517f08c379a0000000000000000000000000000000000000000000000000000000008152600401610e669061207e565b60405180910390fd5b60008211610eb2576040517f08c379a0000000000000000000000000000000000000000000000000000000008152600401610ea990611f7e565b60405180910390fd5b81600160008581526020019081526020016000206005018190555060006001600085815260200190815260200160002060060160006101000a81548160ff02191690836002811115610f0057fe5b02179055507f4ddf5feda5d91623d951092bc7fba6a91e2757b455c7d90cb4693d61d6d8a554838342604051610f38939291906121cf565b60405180910390a1505050565b60016020528060005260406000206000915090508060000154908060010160009054906101000a900473ffffffffffffffffffffffffffffffffffffffff1690806002018054600181600116156101000203166002900480601f01602080910402602001604051908101604052809291908181526020018280546001816001161561010002031660029004801561101d5780601f10610ff25761010080835404028352916020019161101d565b820191906000526020600020905b81548152906001019060200180831161100057829003601f168201915b505050505090806003018054600181600116156101000203166002900480601f0160208091040260200160405190810160405280929190818152602001828054600181600116156101000203166002900480156110bb5780601f10611090576101008083540402835291602001916110bb565b820191906000526020600020905b81548152906001019060200180831161109e57829003601f168201915b5050505050908060040154908060050154908060060160009054906101000a900460ff16905087565b60008060028111156110f257fe5b6001600084815260200190815260200160002060060160009054906101000a900460ff16600281111561112157fe5b149050919050565b611131611676565b600160008381526020019081526020016000206040518060e0016040529081600082015481526020016001820160009054906101000a900473ffffffffffffffffffffffffffffffffffffffff1673ffffffffffffffffffffffffffffffffffffffff1673ffffffffffffffffffffffffffffffffffffffff168152602001600282018054600181600116156101000203166002900480601f0160208091040260200160405190810160405280929190818152602001828054600181600116156101000203166002900480156112485780601f1061121d57610100808354040283529160200191611248565b820191906000526020600020905b81548152906001019060200180831161122b57829003601f168201915b50505050508152602001600382018054600181600116156101000203166002900480601f0160208091040260200160405190810160405280929190818152602001828054600181600116156101000203166002900480156112ea5780601f106112bf576101008083540402835291602001916112ea565b820191906000526020600020905b8154815290600101906020018083116112cd57829003601f168201915b5050505050815260200160048201548152602001600582015481526020016006820160009054906101000a900460ff16600281111561132557fe5b600281111561133057fe5b81525050905060003411611379576040517f08c379a000000000000000000000000000000000000000000000000000000000815260040161137090611ffe565b60405180910390fd5b6000600281111561138657fe5b8160c00151600281111561139657fe5b146113d6576040517f08c379a00000000000000000000000000000000000000000000000000000000081526004016113cd9061203e565b60405180910390fd5b8060a00151341461141c576040517f08c379a000000000000000000000000000000000000000000000000000000000815260040161141390611f5e565b60405180910390fd5b806020015173ffffffffffffffffffffffffffffffffffffffff166108fc349081150290604051600060405180830381858888f19350505050158015611466573d6000803e3d6000fd5b507f1beec9cc2a1380da3ecd8fda567ad73d537534fae6df1b685b9a83a6c1db7bc28282602001513360405161149e9392919061211b565b60405180910390a16114b082336114c0565b5050565b60008080549050905090565b600073ffffffffffffffffffffffffffffffffffffffff166001600084815260200190815260200160002060010160009054906101000a900473ffffffffffffffffffffffffffffffffffffffff1673ffffffffffffffffffffffffffffffffffffffff161415611566576040517f08c379a000000000000000000000000000000000000000000000000000000000815260040161155d90611fde565b60405180910390fd5b806001600084815260200190815260200160002060010160006101000a81548173ffffffffffffffffffffffffffffffffffffffff021916908373ffffffffffffffffffffffffffffffffffffffff160217905550600180600084815260200190815260200160002060060160006101000a81548160ff021916908360028111156115ed57fe5b02179055505050565b828054600181600116156101000203166002900490600052602060002090601f016020900481019282601f1061163757805160ff1916838001178555611665565b82800160010185558215611665579182015b82811115611664578251825591602001919060010190611649565b5b50905061167291906116d4565b5090565b6040518060e0016040528060008152602001600073ffffffffffffffffffffffffffffffffffffffff16815260200160608152602001606081526020016000815260200160008152602001600060028111156116ce57fe5b81525090565b6116f691905b808211156116f25760008160009055506001016116da565b5090565b90565b60008135905061170881612353565b92915050565b60008135905061171d8161236a565b92915050565b60008083601f84011261173557600080fd5b8235905067ffffffffffffffff81111561174e57600080fd5b60208301915083600182028301111561176657600080fd5b9250929050565b60008135905061177c81612381565b92915050565b60006020828403121561179457600080fd5b60006117a2848285016116f9565b91505092915050565b600080600080600080600060a0888a0312156117c657600080fd5b60006117d48a828b0161170e565b97505060206117e58a828b0161176d565b965050604088013567ffffffffffffffff81111561180257600080fd5b61180e8a828b01611723565b9550955050606088013567ffffffffffffffff81111561182d57600080fd5b6118398a828b01611723565b9350935050608061184c8a828b0161176d565b91505092959891949750929550565b60006020828403121561186d57600080fd5b600061187b8482850161176d565b91505092915050565b6000806040838503121561189757600080fd5b60006118a58582860161176d565b92505060206118b68582860161176d565b9150509250929050565b6118c9816122ab565b82525050565b6118d881612250565b82525050565b6118e781612250565b82525050565b6118f681612262565b82525050565b611905816122bd565b82525050565b611914816122bd565b82525050565b60006119268385612233565b93506119338385846122f3565b82840190509392505050565b600061194a82612206565b6119548185612211565b9350611964818560208601612302565b61196d81612335565b840191505092915050565b600061198382612206565b61198d8185612222565b935061199d818560208601612302565b6119a681612335565b840191505092915050565b60006119be602783612222565b91507f4c2761647265737365206e6520646f69742070617320c3aa74726520c3a9676160008301527f6c6520c3a02030000000000000000000000000000000000000000000000000006020830152604082019050919050565b6000611a24601b83612222565b91507f4964656e74696669616e742064c3a96ac3a0207574696c6973c3a900000000006000830152602082019050919050565b6000611a64601b83612222565b91507f4365206e6f6d20646520506f6b656d6f6e2065786973746520212100000000006000830152602082019050919050565b6000611aa4602383612222565b91507f4d6f6e74616e7420696e737566666973616e74206f752074726f7020c3a96c6560008301527f76c3a900000000000000000000000000000000000000000000000000000000006020830152604082019050919050565b6000611b0a602783612222565b91507f4c6520707269782064652076656e7465206e6520706575742070617320c3aa7460008301527f72652064652030000000000000000000000000000000000000000000000000006020830152604082019050919050565b6000611b70601b83612222565b91507f446f697420c3aa74726520756e206167656e7420616772c3a9c3a900000000006000830152602082019050919050565b6000611bb0601783612222565b91507f446f697420c3aa74726520656e20706173736174696f6e0000000000000000006000830152602082019050919050565b6000611bf0601283612222565b91507f506f6b656d6f6e20696e6578697374616e7400000000000000000000000000006000830152602082019050919050565b6000611c30601d83612222565b91507f4c65206d6f6e74616e74206e65207065757420c3aa74726520646520300000006000830152602082019050919050565b6000611c70601d83612222565b91507f436574746520696d61676520506f6b656d6f6e206578697374652021210000006000830152602082019050919050565b6000611cb0601e83612222565b91507f4c6520706f6b656d6f6e20646f697420c3aa74726520656e2076656e746500006000830152602082019050919050565b6000611cf0601a83612222565b91507f436574746520696420506f6b656d6f6e206578697374652021210000000000006000830152602082019050919050565b6000611d30601883612222565b91507f446f697420c3aa7472652070726f707269c3a9746169726500000000000000006000830152602082019050919050565b6000611d70601083612222565b91507f496e6465782074726f70206772616e64000000000000000000000000000000006000830152602082019050919050565b6000611db0602a83612222565b91507f4964656e74696669616e74206465206c612070726f707269c3a974c3a920302060008301527f696d706f737369626c65000000000000000000000000000000000000000000006020830152604082019050919050565b600060e083016000830151611e216000860182611eac565b506020830151611e3460208601826118cf565b5060408301518482036040860152611e4c828261193f565b91505060608301518482036060860152611e66828261193f565b9150506080830151611e7b6080860182611eac565b5060a0830151611e8e60a0860182611eac565b5060c0830151611ea160c08601826118fc565b508091505092915050565b611eb5816122a1565b82525050565b611ec4816122a1565b82525050565b6000611ed782848661191a565b91508190509392505050565b6000602082019050611ef860008301846118ed565b92915050565b60006020820190508181036000830152611f17816119b1565b9050919050565b60006020820190508181036000830152611f3781611a17565b9050919050565b60006020820190508181036000830152611f5781611a57565b9050919050565b60006020820190508181036000830152611f7781611a97565b9050919050565b60006020820190508181036000830152611f9781611afd565b9050919050565b60006020820190508181036000830152611fb781611b63565b9050919050565b60006020820190508181036000830152611fd781611ba3565b9050919050565b60006020820190508181036000830152611ff781611be3565b9050919050565b6000602082019050818103600083015261201781611c23565b9050919050565b6000602082019050818103600083015261203781611c63565b9050919050565b6000602082019050818103600083015261205781611ca3565b9050919050565b6000602082019050818103600083015261207781611ce3565b9050919050565b6000602082019050818103600083015261209781611d23565b9050919050565b600060208201905081810360008301526120b781611d63565b9050919050565b600060208201905081810360008301526120d781611da3565b9050919050565b600060208201905081810360008301526120f88184611e09565b905092915050565b60006020820190506121156000830184611ebb565b92915050565b60006060820190506121306000830186611ebb565b61213d60208301856118c0565b61214a60408301846118c0565b949350505050565b600060e082019050612167600083018a611ebb565b61217460208301896118de565b81810360408301526121868188611978565b9050818103606083015261219a8187611978565b90506121a96080830186611ebb565b6121b660a0830185611ebb565b6121c360c083018461190b565b98975050505050505050565b60006060820190506121e46000830186611ebb565b6121f16020830185611ebb565b6121fe6040830184611ebb565b949350505050565b600081519050919050565b600082825260208201905092915050565b600082825260208201905092915050565b600081905092915050565b600061224982612281565b9050919050565b600061225b82612281565b9050919050565b60008115159050919050565b600081905061227c82612346565b919050565b600073ffffffffffffffffffffffffffffffffffffffff82169050919050565b6000819050919050565b60006122b6826122cf565b9050919050565b60006122c88261226e565b9050919050565b60006122da826122e1565b9050919050565b60006122ec82612281565b9050919050565b82818337600083830152505050565b60005b83811015612320578082015181840152602081019050612305565b8381111561232f576000848401525b50505050565b6000601f19601f8301169050919050565b6003811061235057fe5b50565b61235c8161223e565b811461236757600080fd5b50565b61237381612250565b811461237e57600080fd5b50565b61238a816122a1565b811461239557600080fd5b5056fea26469706673582212209bf95db03bc2f936db60be2b74bbedc27604466c1e894f46be7e127114acfb2564736f6c63430006040033",
  "source": "pragma solidity ^0.6.4;\r\n// SPDX-License-Identifier: MIT\r\n\r\npragma experimental ABIEncoderV2;\r\n\r\ncontract MonPokemon {\r\n\r\n    // Diffrents tats d'un pokemon\r\n    enum EtatPokemon { EN_VENTE, EN_PASSATION, CAPTURE }\r\n\r\n    struct Pokemon {\r\n        uint256 id;\r\n        address payable proprietaire; // Propritaire\r\n        string image; // Image hash\r\n        string nom; // Nom Pokemon\r\n        uint256 xp; // Xp\r\n        uint256 prix; // Prix en wei\r\n        EtatPokemon etat; // Etat du pokemon\r\n    }\r\n\r\n    event Vente(uint256 id, address ancienProprio, address nouveauProprio);\r\n    event MiseEnVente(uint256 id, uint256 prix, uint256 date);\r\n\r\n    // Liste dynamique des pokemons\r\n    uint256[] private listPokemons;\r\n\r\n    // Liste des pokemons indexe par une valeur numrique\r\n    mapping(uint256 => Pokemon) public pokemons;\r\n    \r\n    // Vrifie que le pokemon existe par un boolean\r\n    mapping(uint => bool) _idPokemonExists;\r\n    mapping(string => bool) _nomPokemonExists;\r\n    mapping(string => bool) _imagePokemonExists;\r\n\r\n    mapping(address => bool) agents;\r\n\r\n    // Fonctions uniquement utilisables par un agent agr\r\n    modifier estAgentAgree() {\r\n        require(agents[msg.sender], \"Doit tre un agent agr\");\r\n        _;\r\n    }\r\n    // Fonctions uniquement utilisables par le propritaire du pokemon donne\r\n    modifier estProprietaire(uint256 _id) {\r\n        require(pokemons[_id].proprietaire == msg.sender, \"Doit tre propritaire\");\r\n        _;\r\n    }\r\n\r\n    constructor() public {\r\n        agents[msg.sender] = true;\r\n    }\r\n\r\n    function ajouterAgentAgree(address _agent) estAgentAgree external {\r\n        require(_agent != address(0x0), \"L'adresse ne doit pas tre gale  0\");\r\n        agents[_agent] = true;\r\n    }\r\n\r\n    function retirerAgentAgree(address _agent) estAgentAgree external {\r\n        agents[_agent] = false;\r\n    }\r\n\r\n    // Achat d'une proprit\r\n    function acheterPokemon(uint256 _id)\r\n        external\r\n        payable\r\n    {\r\n        Pokemon memory pokemon = pokemons[_id];\r\n\r\n        // Protge des montants  0\r\n        require(msg.value > 0, \"Le montant ne peut tre de 0\");\r\n        // Le pokemon doit tre en vente\r\n        require(pokemon.etat == EtatPokemon.EN_VENTE, \"Le pokemon doit tre en vente\");\r\n        // Le montant doit tre exact\r\n        require(msg.value == pokemon.prix, \"Montant insuffisant ou trop lev\");\r\n        pokemon.proprietaire.transfer(msg.value);\r\n\r\n        emit Vente(_id, pokemon.proprietaire, msg.sender);\r\n\r\n        changerProprietaire(_id, msg.sender);\r\n    }\r\n\r\n    function ajouterPokemon(\r\n        address payable _proprietaire,\r\n        uint256 _id,\r\n        string calldata _image,\r\n        string calldata _nom,\r\n        uint256 _xp\r\n    ) external estAgentAgree {\r\n        // Interdiction de mettre l'identifiant  0\r\n        require(_id > 0, \"Identifiant de la proprit 0 impossible\");\r\n        // L'identifiant ne doit pas exister dj\r\n        require(pokemons[_id].proprietaire == address(0x0), \"Identifiant dj utilis\");\r\n        // Vrifie que le pokemon n'existe pas !!\r\n        require(!_idPokemonExists[_id], \"Cette id Pokemon existe !!\");\r\n        require(!_nomPokemonExists[_nom], \"Ce nom de Pokemon existe !!\");\r\n        require(!_imagePokemonExists[_image], \"Cette image Pokemon existe !!\");\r\n        // Prix par dfaut  0. L'achat du pokemon ne peut se faire quand un montant est  0\r\n        pokemons[_id] = Pokemon( _id, _proprietaire, _image, _nom, _xp, 0, EtatPokemon.CAPTURE);\r\n        // On conserve une liste dynamique des pokemons recenses\r\n        listPokemons.push(_id);\r\n        // on vrifie si les attributs du pokemon existe\r\n        _idPokemonExists[_id] = true;\r\n        _nomPokemonExists[_nom] = true;\r\n        _imagePokemonExists[_image] = true;\r\n    }\r\n\r\n    // Passe le pokemon  un nouveau proprtaire. Cette fonction est prive est n'est utilise que lorsque un\r\n    // pokemon est vendue\r\n    function changerProprietaire(uint256 _id, address payable _nouveauProprietaire) private {\r\n        require(pokemons[_id].proprietaire != address(0x0), \"Pokemon inexistant\");\r\n        pokemons[_id].proprietaire = _nouveauProprietaire;\r\n        pokemons[_id].etat = EtatPokemon.EN_PASSATION;\r\n    }\r\n\r\n    function declarerPokemon(uint256 _id) external estProprietaire(_id) {\r\n        require(pokemons[_id].etat == EtatPokemon.EN_PASSATION, \"Doit tre en passation\");\r\n        pokemons[_id].etat = EtatPokemon.CAPTURE;\r\n    }\r\n\r\n    function mettrePokemonEnVente(uint256 _id, uint256 _prix) external estProprietaire(_id) {\r\n        // Donation du pokemon impossible\r\n        require(_prix > 0, \"Le prix de vente ne peut pas tre de 0\");\r\n\r\n        pokemons[_id].prix = _prix;\r\n        pokemons[_id].etat = EtatPokemon.EN_VENTE;\r\n\r\n        // Journalisation de la mise en vente avec la date du moment d'excution de la fonction (now)\r\n        emit MiseEnVente(_id, _prix, now);\r\n    }\r\n\r\n    function pokemonEstEnVente(uint256 _id) public view returns(bool) {\r\n        return pokemons[_id].etat == EtatPokemon.EN_VENTE;\r\n    }\r\n\r\n\r\n    // Trouve les pokemons dans une localisation donne\r\n    // et retourne les identifiants\r\n\r\n\r\n    // Trouve le pokemon selon l'index de la liste\r\n    function pokemonIndex(uint256 _index) external view returns (Pokemon memory) {\r\n        require(_index < listPokemons.length, \"Index trop grand\");\r\n        return pokemons[listPokemons[_index]];\r\n    }\r\n\r\n    function totalPokemons() external view returns (uint256) {\r\n        return listPokemons.length;\r\n    }\r\n}\r\n",
  "sourcePath": "/mnt/d/MonPokemon-Blockchain/mon-pokemon-truffle/mon-pokemon-truffle/contracts/MonPokemon.sol",
  "compiler": {
    "name": "solc",
    "version": "0.6.4+commit.1dca32f3.Emscripten.clang"
  },
  "schemaVersion": "3.2.3",
  "updatedAt": "2021-02-27T16:52:39.245Z",
  "devdoc": {
    "methods": {}
  },
  "userdoc": {
    "methods": {}
  }
}